:0E0000000219FD020301FFFFFFFFFF02008D4A
:0B00130002051AFFFFFFFFFF02009034
:03002B000202B618
:03005B0002052972
:030073000202EE98
:100080000406080C10182030406080A0C0054032E3
:10009000C2AFC2A853E6EFC28E85698BC0D0D2D35F
:1000A000C0E0C0F0C2CAA8CCA9CDD2CAD2AF758A6E
:1000B00000C3E8956AF8E9956BF9C3E913F9E81309
:1000C000F8E5646007C3E913F9E813F8E97025E877
:1000D000956C4020956C501CE582B410177C007B19
:1000E000007A007908900000A868E5647004C3E80D
:1000F00013F801FD900000D2A8D2AA61CCE0FDC3A4
:100100009CC39840EF98EB33FB0582E0FCC39DC392
:100110009840E198EB33FB0582E0FDC39CC3984017
:10012000D398EB33FB0582E0FCC39DC39840C59890
:10013000EB33FB0582E0FDC39CC39840B798EB33DB
:10014000FB0582E0FCC39DC39840A998EB33FB05F7
:1001500082E0FDC39CC398409B98EB33FB0582E093
:10016000FCC39DC398408D98EB33FB0582217890AA
:100170000000D2A8D2AA61CCE0FDC39CC39840EF96
:1001800098EA33FA0582E0FCC39DC39840E198EAFF
:1001900033FA0582E0FDC39CC39840D398EA33FA52
:1001A0000582E0FCC39DC39840C598EA33FA0582F6
:1001B000E0FDC39CC39840B798EA33FA0582E0FC9F
:1001C000C39DC39840A998EA33FA0582E0FDC39C19
:1001D000C398409B98EA33FA0582E0FCC39DC3981C
:1001E000408D98EA33FA0582EBC46B6A54F0F9EA61
:1001F000C454F0C3996009900000D2A8D2AA61CC7F
:10020000EBF4C454F0F9EAF4C4540E49FAEBF4C424
:10021000540FFBC3EA9460FAEB9400FB50067B009A
:100220007A007900303A27C3EA94D0F8EB9407F9C2
:10023000400BE8FAE9FB203509D23541423035025E
:10024000C235203902B235C3EA33FAEB33FBEB2B6C
:100250003B3BF9C3EB13FBEA13FAEA29FAEB340050
:10026000FB30E3047AFF7BFFE5255403601B202A63
:1002700018E55B33F9EB7007C3E99A4002E9FAE548
:100280003CC4332AFAEB3400FBC3EA33C4540FF8FE
:10029000EB33C454F048F87005EA6002780190002E
:1002A00000D2A8D2AAE5226002152281B9900000EE
:1002B000D2A8D2AA61CCC0D0C0E0C2CF0541E564CB
:1002C0006009E563600575630041E9756301E52335
:1002D00060021523C3E552600575530041E9E553FB
:1002E0002401F55350037553FFD0E0D0D032C2AF94
:1002F00053E67F7592FA7593FFC22053917FD2AF78
:1003000032C0E0E58A30340885698BF0A3D0E03252
:10031000D0E0C2AF53E6EFC0D0C0E0C0F0D2D3D23D
:10032000AF5388EFA88AA98CAA40308D010A758A3C
:1003300000758C00754000438810E564700AC3E8BE
:1003400033F8E933F9EA33FA30331FE8C4540FFACB
:10035000E9C454F04AFAC3132AFAC3E833F8E9337C
:10036000F9E82AFAE93406FB61BD30320FC3E833FD
:10037000E933FAE82AFAE93400FB61BD303115E8C7
:1003800075F056A4AAF0E975F056A42AFAC5F0341F
:1003900000FB61BDC3EA13FAE913F9E813F8E87545
:1003A000F056A4AAF0E975F056A42AFAC5F0340074
:1003B000C313FBEA13FAC3EB13FBEA13FAC3EB9480
:1003C000125009C3EA9434EB940750160522E52233
:1003D00070021522C3E52294325002A10D7552001D
:1003E000A110E522600215223036067C007D0861EE
:1003F000FCAC31AD32303A04AC33AD34C3EA9CFAD4
:10040000EB9DFB9208AE5EAF5F303A42500720355D
:1004100009D235811A303502C235303504AE60AFAD
:1004200061203902B235C3EA33FAEB33FBA208503C
:100430000AEAF42401FAEBF43400FBC3EA9450FA1C
:10044000EB9400FB501478007A007B00815AA208DC
:10045000500878007A007B0081B9E5255403601BC1
:10046000202A18E55B33F9EB7007C3E99A4002E9EB
:10047000FAE53CC4332AFAEB3400FBEA8EF0A4F927
:10048000AAF0EB8EF0A42AFAC5F03400FBC3EB13FC
:10049000FDEA13F8C3ED13FDE813F80FEF14600441
:1004A000C3E833F8C3E933EA33FAEB33FBDFEDEBB0
:1004B00030E30678FF7AFF7B078852D230E860038A
:1004C000755300C3E559FC955A4002AC5AC3EC95EC
:1004D000525008EC75F008A4FAABF0EAF4F8EBF42B
:1004E0005407F9C3E8941EFAE99400FB50047A001B
:1004F0007B00885489558A568B5775230AD0F0D0D3
:10050000E0D0D053F7DF43F74043E6103275230ABB
:10051000D0F0D0E0D0D043E61032C2AAD28EC2CA08
:1005200085CC6A85CD6BD2CA32C2AFC0D0C0E0D212
:10053000D3A8F9E55830E20AE5FA20E23520E132A5
:10054000A14AE5FA30E22B20E128C3E55513F8E58E
:100550005413F5FB88FCC3E55713F8E55613F5E98A
:1005600088EA85555853F7BFD2A8303402D2AA532F
:10057000E6EF53F7DFD0E0D0D0D2AF32790180146C
:1005800079038010790A800C791E800879648004D0
:1005900079C880007817E4D5E0FDD8FAD9F6227A38
:1005A000147B7880127A107B8C800C7A0D7BB4805F
:1005B000067A0B7BC88000E562D5E001227902E46F
:1005C000C294D5E0FDD291D5E0FDC291D5E0FDD237
:1005D00094D5E0FDE920E002D29230E002D290E52D
:1005E00062D5E0FDE920E002C29230E002C29074E0
:1005F00096D5E0FDD9C9EAF8D5E0FDD8FBDBB8C255
:10060000942278FF20282879A1E76023E548601F1D
:1006100074FF8548F084853FF030290375F005A408
:10062000F8C5F0600278FFC3E8955B5002A85B88CC
:100630005A22C3E54794A0E5489400E55A500314B4
:10064000C143046002F55A2275E89022055CC3E5B7
:100650005C9408405330EDF4A8BDA9BE755C00E978
:10066000FA79A0E76041EA7006E55D6018800CC386
:10067000E8955D600EE55D5005600A148007046032
:10068000FA8002E55DF55DC39567401B7559C0C3EF
:1006900094044013755980C39404400B755940C3AA
:0F06A0009404400375590022E559241050027448
:1006B000F55922743279A687F0A4C5F0A2F733F871
:1006C000C3E895594002A859885B227547007548D0
:1006D000F022C2AFC2CAA8CCA9CDAA4130CF010A2C
:1006E000D2CAD2AFC3EA13FAE913F9E813F8AB425E
:1006F000AC4388428943C3E89BF8E99C20280A540C
:100700007FF9302C02E1F0E149AD448A44F9EA9DD9
:10071000547FFA600678FF79FFE12EAE45AF468B35
:10072000458C46A842A943C3E89EF8E99FF9C3E572
:100730004813FBE54713FAE82AF547E93BF548502B
:10074000067547FF7548FFE196AA47AB48AC47AD31
:10075000487E047F02C3EB9404400D1E1FC3EB943C
:100760000840052029021E1FC3ED13FDEC13FCDE1B
:10077000F7C3EA9CFAEB9DFBEF6009C3E913F9E8C4
:1007800013F8DFF7EA28FAEB39FB8A478B48500663
:100790007BFF8B478B48C3EB94025002D22C30284E
:1007A000047F03E1C17892E6FFC3E53D94824011E6
:1007B0000FC3E53D94A040010FC3EF940640027FB4
:1007C000057E02E548C4540FF9E548C454F0F8E545
:1007D00047C4540F28F8C3E89EFAE99400FB400987
:1007E000C3EA9401EB940050047A01E4FB02083C54
:1007F000AA47AB48EBC4FEEAC4540F4EFCC3EA9CC4
:10080000FAEB9400FBC3E813C313F8EA28FAEB34BD
:1008100000FB8A478B48C3EB94024002C22C78024B
:10082000EBC4FE7B00EAC4540F4EFAC3EA98FA40C8
:1008300005C3940150027A017892E6FF302002014C
:100840003C854E92854F93D22043E680C3E49AF8CC
:10085000E49BF9C3E833F8E933F9302C030208D1FB
:10086000E8FAE9FBD3E913FDE813FC884E894FC38E
:10087000EF94036038EF20E00CE82CF8E93DF9EC48
:10088000FAEDFB8013E828F8E939F9C3E82401F808
:10089000E93400F97AFF7BFFC3EF9403400F8A50DD
:1008A0008B51884A894B8C4C8D4D020906885089A2
:1008B000518A4A8B4B8C4C8D4D3028127550F075F7
:1008C00051FF754CF0754DFF754EF0754FFF0209E5
:1008D00006E8FAD3E813FC884EC3EF94036021EFD7
:1008E00020E007E82CF8ECFA01F1E8282401F87A76
:1008F100C3EF940340098A50884A8C4C0209068848
:10090100508A4A8C4C3020022106753A02D220438B
:10091100E680E5255403602DA847A948C3E913F9EA
:10092100E813F8302804E92440F9C2AF53E67F7593
:100931009100C3E498F594E499F595759104D2205A
:1009410043E680D2AF22D221754900752000302BB9
:10095100037520402165D221754900752040302B57
:100961000375200078017901202C20E525540360CE
:1009710002C2217914E548C313700104F8C3941429
:1009810040027814302804781B791BC3E833F8C37C
:10099100E933F9202010E549600C302803D53A04E9
:1009A100D2234118310E0549E59B5440B52002413F
:1009B1000230280908C3E899400118219420210A2E
:1009C10008C3E899400221652194C22153E67F754D
:1009D1009100302C117594007595F0759104D22019
:1009E10043E680020965E5487EFFC3334009C3330E
:1009F1004005C3334001FEC3E49E759400F5952183
:100A0100DCC3E5399401500221653021022165D80A
:100A11000241162194C223C2AF53E67F759100852E
:100A21005094855195759104854A92854B93D220B6
:100A310043E680D2AFE5255403600720290205393A
:100A4100801030230D202B0A2021071581158102EA
:100A510011FD2278003021027801E53D75F007A4EF
:100A6100F9E5F028F5F0E9A2F013A2F113A2F213CF
:100A7100F53DC394785003753D78C3E53D953E40FF
:100A81000BD222C292C291C29075D53F3020024151
:100A91008D854C92854D93D22043E68022203810DB
:100AA100C2AFC294D29575D536D2AF759F20616E13
:100AB100C2AFC294D29375D51BD2AF759F20616E20
:100AC100203810C2AFC29075D52DD295D2AF759F87
:100AD10030616EC2AFC29275D52DD293D2AF759FE0
:100AE10010616E203810C2AFC295D29375D52DD248
:100AF100AF759F108077C2AFC293D29575D52DD2B5
:100B0100AF759F308067203810C2AFC29175D51B79
:100B1100D293D2AF759F208054C2AFC29175D536A2
:100B2100D295D2AF759F208044203810C2AFC293B6
:100B3100D29475D51BD2AF759F308031C2AFC295AB
:100B4100D29475D536D2AF759F108021203810C24E
:100B5100AFC29275D536D294D2AF759F10800EC2B6
:100B6100AFC29075D51BD294D2AF759F30C22222ED
:100B7100C292C291C290C295C294C29375D53F22CE
:0F0B8100788076FF0876FF0876FF0876FF087603
:100B91000876FF0876090876FF087604788C7601D6
:100BA1000876FF0876FF0876FF0876FF0876FF08CB
:100BB10076030876FF0876FF0876FF08761C08762C
:100BC100E40876980876500876050876FF087601DD
:100BD1000876FF0876800876FF0876070876000811
:100BE10076FF0876FF08760008760022FA75F00C89
:100BF100A4ABF0EAC333F8740133F9E8C333F8E97D
:100C010033F9E8C32BF8E93400F9E8C333F8E933E1
:100C1100F9227888E6C39403D23A5002C23AC23824
:100C2100E630E102D238A23892397886E614900093
:100C3100809378A6F67886E6F53FC3940250037553
:100C41003F02789CE6753EFFB40203753EA0B403F3
:100C510003753E8278A0E6F8600674282409D8FC62
:100C6100F5677896E671ED88318932789EE671ED07
:100C7100883389347897E671ED8835893671712228
:100C81003036117A007B007CFF7D007E0091E78B7E
:100C91005F8A5E22303A227896E6FA7B00789EE6F9
:100CA100FC7D00C3EA33FAEB33FBC3EC33FCED33D9
:100CB100FD7E0A91E78B618A607896303A02789ED0
:100CC100E6FA7B007897E6FC7D007E00303A10C39F
:100CD100EA33FAEB33FBC3EC33FCED33FD7E0A91CF
:100CE100E78B5F8A5E22C3EC9EFCED9400FDC3ECB2
:100CF1009AFCED9BFDC3EC9423ED940050047C23FE
:100D01007D00C3EC94FFED940140047CFF7D017BE9
:100D12000B7A000AEA7009C3EC33FCED33FDA11231
:100D2200EC8AF0A4AEF0ED8AF0A42E947C40E4EAC2
:100D3200F460DD22D23691811205881205887A008C
:100D42007B007C10120580E5522AFA74003BFBDC22
:100D5200F37C04C3EB13FBEA13FADCF7FFEB60024C
:100D62007FFFC23691812278A5E6F954037000E92B
:100D7200540C7000E954307000E954C070002275C0
:0F0D820065007566007597DE7597AD7581C04386
:100D92008075EF0675A90071717580FF75F1F075A8
:100DA200A4007580FF75D4FF75900075F23F75A59C
:100DB2003F75900075D53F75A60175E34075E20257
:100DC2007171E4F8F6D8FD71811212417898866249
:100DD200753001C2AF12059012059F1205881205E7
:100DE200A51205881205AB120588B169C2AF7565F7
:100DF2000075660078FA79FA308507D9FBD8F702D0
:100E02001C009113918178988662717175A913758E
:100E1200A71075C10075A70075640075E405758893
:100E220011758E0475890975C80475910475D840C9
:100E320075D90875F782759E0375960275DA427543
:100E4200DB4275A82375E69075B801759B80759D88
:100E52000075D10C75BCB975BB1075E88075B2010F
:100E620012057CD2AF753C00C230120590C231C26D
:100E720032C233C23475220012058CC3E522940AB1
:100E82005002E13CD23175220012058CC3E5229456
:100E92000A5002E13CC231D23275220012058CC3E3
:100EA200E522940A5002E13C75E4D5758851758EAD
:100EB200017589AA758C00758D00C2A9D2ABD2AA20
:100EC200756980756814756C50C232D23475220A05
:100ED20012058C756810C3E522940A405D758E0C6C
:100EE200756900756828756C2875220A12058C755B
:100EF2006820C3E522940A4041758E0C756980759D
:100F02006814756C1475220A12058C756810C3E595
:100F120022940A402575E405758811758E04758939
:100F220009D2A9C2ABC2AAC234D2337522001205B9
:100F32008CC3E522940A4002A1EE12058020300300
:100F4200020DEEC2AF12059F12059F12059FD2AF8E
:100F5200120590203403303A030210021205807801
:100F62008CE6C394015003021002E530C394015091
:100F7200030210027565A57566F17F02D236918172
:100F820012058CC2AFC2369181C3E552947FD2AFB3
:100F9200406E12057CC2AF1205B1D2AFDFDEB136B0
:100FA200C3EF7897F612059012132E7F0AD236916C
:100FB2008112058CC2AFC2369181C3E552947FD2B1
:100FC200AF50E812057CC2AF12059F1205841205CC
:100FD2009FD2AFDFD8B136EF24037896F6F879972F
:100FE200E7C394234003985006E824237897F61227
:100FF200059012128812135D12058C9181020DEE7A
:1010020075650075660012058CC3E55294014003B4
:10101200020F55C2AF1205B11205B11205B1D2AF1E
:10102200120590753000E4F537F5380537E537F4E9
:10103200703F0538789AE678191460127832146095
:101042000D787D14600878FA146003753800C3E5E2
:101052003898401D120B7112057C153875370078CF
:10106200998662C2AF1205B1D2AF78988662120534
:101072008C120584E5237003020DEEC3E552940140
:1010820040A912058CE5237003020DEEC2AF120BCC
:1010920071E4D2AFE4F55CF524F525F53D755C0805
:1010A20012057C12064830EDFDA8BDA9BEE970010B
:1010B200F8885D12064C755C08C2AF7559FF1206BE
:1010C200B3855B59855B5AD2AF75A71075C1307570
:1010D200A70075A903756401303A07C2383035029A
:1010E200D238D228753900120B2A120B4D1206CBB8
:1010F2001206D21206CB1206D21206CB12095712D0
:101102000A54120A9E1206D2120947202C03120612
:1011120002302C03120632120A54120AC11206D2EB
:10112200120957120A54120AE41206D2120947127D
:101132000A54120B071206D2120957120A54120B42
:101142002A1206D2120648120947120A54120B4DED
:1011520012064C1206D2302827855B5979187A0C70
:10116200C3E53999400EC228D2298A3B855B59854D
:101172005B5A800CC3E552940140030210FE410504
:1011820030291F202B1CE53B147006C229D22A01EC
:10119200FEF53BC3E552940140030210FE203A02E1
:1011A2008061753C0078FA79A4E760027803C3E5B0
:1011B2005398504FE523604B303A172038052035BD
:1011C20007800F303502800A202B07D22B855B590E
:1011D200212E78F0302B05855B597820C3E548989D
:1011E20050030210FE302B1BC22BC238303502D204
:1011F20038D229753B12855B5901FE053CE55260E8
:10120200024108753C00C2AF120B717524007525AE
:101212000075A91375A71075C10075A70075640044
:10122200D2AF12058C120B7178A4E66006D295D269
:1012320094D293C3E53C94044003020DEE0128903E
:101242001A0D782051C1E520B4550AA351C1E520F9
:10125200B4AA0280137565A57566F1120B815188D7
:10126200756500756600801D901A0378807B0A51AF
:10127200C1A308DBFA901A0F788C7B1A51C1A3081C
:10128200DBFA901A2922C2AF710451E1901A00745C
:101292001051C6A3740651C6A3742151C6901A03F5
:1012A20078807B0A51C5A308DBFA901A0F788C7BF1
:1012B2001A51C5A308DBFA711751F5901A2922E4D5
:1012C20093F622E6438F01538FFDFFC3E583941CFF
:1012D200400122EF8565B78566B7F0538FFE224342
:1012E2008F02438F018565B78566B7901A0DF0535B
:1012F2008FFC22901A0D745551C6901A0E74AA5181
:10130200C6227A3079D07820901A4051C1E520F770
:1013120009A3DAF7227A3079D0901A40E751C60948
:10132200A3DAF9227C05120590DCFB22C2AF12057A
:101332009F1205A51205AB1205B112058412059F75
:101342001205A51205AB1205B112058412059F12F2
:1013520005A51205AB1205B1D2AF22C2AF1205B17B
:101362001205AB1205A512059F1205841205B112D2
:1013720005AB1205A512059F1205841205B11205CF
:0A138200AB1205A512059FD2AF22A1
:0619FD00020D811006211D
:071A090009FF04FF55AA01CB
:101A150003FFFFFF1CE4985005FF01FF80FF07004F
:021A27000000BD
:101A400023525F485F313523202020202020202092
:101A500023424C48454C492445464D3842323123B7
:0D1A600042522042617369632045534320C8
:101C0000C2AFC2D37597DE7597AD7581C075A90057
:101C100043FF80752438752503B1DB7529A5752A26
:101C2000F143F12053A4DFD28575D4FF75E3407DE5
:101C3000FA780379E67C10752200752300901DE880
:101C40007B0675249875250130850281482085081A
:101C5000D8FBD9F9DCF781BA308508D8FBD9F9DC93
:101C6000F781BAB19BE493A3C39A6004DDC381BA40
:101C7000DBDBB18D600281317B08E493FAA3B16EA6
:101C8000DBF87A30B16E752200752300B18DEAFC65
:101C9000EBFDC3ED94FE400EB18D8A278B28ED300D
:101CA000E0048A828B83B18D7AC270D8C3ED94FE32
:0F1CB000601950CEBD0029EC600F752000752122
:101CC000752900752A000200008100A827A92808AC
:101CD00009D804D90281DDB191EAF281D10D81A642
:101CE000C3ED94035051EDA2E092007AC5C3E582A2
:101CF0009400E583941C508C200010438F02438F86
:101D0000018529B7852AB7F0300027A827A9280818
:101D100009438F01538FFDD804D902A132C3E58353
:101D2000941C4003A3A117E28529B7852AB7F0A325
:101D3000A117538FFC81827AC1BD030CE493A3FAEF
:101D4000B152DCF8B14A81828184AA22AB23B16E00
:101D5000EBFAEA6222752608C3E52313F523E52290
:101D600013F52250066323A0632201D526EAB1DBD6
:101D7000B1DB75260AEAF4200102D285300102C2E5
:101D800085B1DBC3134002C201D526EB22B191EA33
:101D9000FB208502A191308502A196752608AE240C
:101DA000AF25C3EF13FFEE13FEB1DFB1DBC3EA13C0
:101DB0003085024480FA30E703632201C3E5231330
:101DC000F523E52213F52250066323A0632201D5F3
:101DD00026D9E52265236523F52222AE24AF250E00
:101DE0000FDEFEDFFCD20122424C48656C693437BD
:061DF0003164E8B20601B7
:00000001FF
