:060000000219FD02035489
:03000B0002008070
:030013000203677E
:03001B000200B030
:03002B00020322AB
:03005B0002037627
:0300730002034144
:10008000C0D075D01018B8CF0408208507B2858677
:100090008AD0D03253A4DFD285C2A98F8E7589AAA7
:1000A000C289C28B758A00D2A8D2AAC228D0D03207
:1000B000C2A8C28E85578BC0D075D008C0E0C0F0F2
:1000C000C2CAA9CCAACDD2CAC3E99558F9EA9559B2
:1000D0007049C3E9955A4043955A503FB8103C784F
:1000E00000A9567D00E2FEC39DC399402E99EC33D2
:1000F000FC08E2FDC39EC399402199EC33FC08E261
:10010000FEC39DC399401499EC33FC08E2FDC39EE5
:10011000C399400799EC33FC088002806AE2FEC371
:100120009DC399406299EB33FB08E2FDC39EC399DE
:10013000405599EB33FB08E2FEC39DC399404899B3
:10014000EB33FB08E2FDC39EC399403B99EB33FBC5
:1001500008E2FEC39DC399402E99EB33FB08E2FDF4
:10016000C39EC399402199EB33FB08E2FEC39DC3B4
:1001700099401499EB33FB08E2FDC39EC3994007F5
:1001800099EB33FB08801E0530E53070021530C353
:10019000E5309432400AD225755B00755C0061122F
:1001A00075310A6112E2FEC39DC39940DA99EA33C0
:1001B000FA08E2FDC39EC39940CD99EA33FA08E2FA
:1001C000FEC39DC39940C099EA33FA08E2FDC39E7D
:1001D000C39940B399EA33FA08EBC46B6C6A3027D1
:1001E00001F4540F70A1C3EBF4FA9460FBECF454E7
:1001F0000F9400FC5018EA7C007B00600CC3135085
:1002000007B55B05055C8006E4F55B755C00302294
:100210001BC3EB94D0F5F0EC94074003ABF0FC303B
:100220002101B39226C3EB33FBEC33FCEB54F04CCF
:10023000C475F00584FAEC13FCEB132AFBEC3400D4
:10024000FC30E3047BFF7C07201C27301124EC707A
:100250000C798187F0C3EB95F05002ABF0E5376085
:100260001175F028A42BFBEC3400FC30E3047BFF79
:100270007C07EB54F84CC423F97007EB7004D225CB
:100280008005753200C225E53060021530C3E54CAB
:10029000FD954D4002AD4DC3ED995008ED75F00848
:1002A000A4FBACF0C3EC13F45403FAEB13F4F930F1
:1002B000291CEBF4540124C0F8E623F630E00FE9E2
:1002C0002401F97009EA3400FA30E2021A19C3E98C
:1002D000940FFBEA9400FC5005E4FBFC800DC3EB9B
:1002E000954FEC95504004AB4FAC5089FB8AFC8B8A
:1002F000E98CEA75310A302719302816758E017598
:1003000089A2D28543A420780085638AC28DD2A9B0
:1003100080097800758A00D2A8D2AAD0F0D0E0D0A7
:10032000D032C0E0C2CF053BD223E5317004D225E4
:1003300080021531302507E5320460020532D0E035
:1003400032C2AF53E67F53917F7592FA7593FFC225
:1003500018D2AF32C0E0E58A85578BC0D075D0087F
:10036000F208D0D0D0E032C2AAD28EC2CA85CC5810
:1003700085CD59D2CA32327A007901801E7A00794D
:100380000580187A00790A80127A007964800C7AE4
:100390000079C880067A0079FA8000090A80097815
:1003A0001874FFD5E0FDD8F9D9F5DAF3227A427B4B
:1003B0003580247A2D7B4D801E7A267B5C80187ACE
:1003C000197B8C80127A147BAF800C7A427B1E8062
:1003D000067A2D7B2C8000E5537001227902E4C25D
:1003E00094D5E0FDD291D5E0FDC291D5E0FDD29447
:1003F000D5E0FDE920E002D29230E002D290E55350
:10040000D5E0FDE920E002C29230E002C29074968D
:10041000D5E0FDD9C9EA78C8D8FED5E0F9DBBDC280
:10042000942271AD71B371B92271D171AD2271B9DC
:1004300071B371AD2279998753B8010471AD8017FA
:10044000B8020471B38010B8030471B98009B8040C
:100450000471BF800271C57998875322901A70E4A5
:1004600093F4601D7C3E901A74E493A3FB6012E445
:1004700093FA600471D78006EBF97A00719BA3DCD4
:10048000E82278A5E6F954037000E9540C7000E9FD
:1004900054307000E954C0700022C292C291C290E0
:1004A000C295C294C29375D5FF22201E2E78FF20DC
:1004B0001026E53A6022E542601E74FF3011027496
:1004C0007F8542F084853AF0A4F8C5F0600278FF99
:1004D000C3E8954E5002A84E884D22C3E54194A032
:1004E000E5429400E54D5003148001046002F54D8F
:1004F00022102301220566E5665403B4012CE55160
:10050000604F7552FFE5BE6048E5BDC3955140415F
:100510007552C89404403A7552969404403375520B
:10052000649404402C7552328027B4021EE5516059
:1005300020C3E54C955260194008E54C6013154CFA
:10054000800FE54C046002054C8006B4030375E897
:100550009030243FE566541FB40419E5BE700AE5E7
:10056000BDC394EB5007E48004E5BD2414F5647525
:100570006502801FB408087564887565088014B426
:100580000C087564AA75650A8009B410067564CCF8
:1005900075650C227541007542F022C2AFC2CAA82F
:1005A000CCA9CDAA3B30CF010AD2CAD2AFC3EA133D
:1005B000FAE913F9E813F8201014C3E8953C883CD5
:1005C000F8E9953D893D547FF9301E36C1B5AB3C05
:1005D000AC3DAD3E883C893D8A3EC3E89BE99CEA40
:1005E0009D547F60087541FF7542FFC184AE3FAFE7
:1005F000408B3F8C40C3E89EF8E99FF9AA41AB428B
:100600008011AA41AB42C3EB9404404894044013C8
:10061000201126C3EB13FDEA13FCC3ED13FDEC130D
:10062000FC804AEBC423FCEAC423541F4CFC7D002D
:10063000C3E913F9E813F88034EBC423FC541FFD1D
:10064000EC54E0FCEAC423541F4CFCC3E913F9E862
:1006500013F88019EBC4FCEAC4540F4CFC7D00C3B2
:10066000E913F9E813F8C3E913F9E813F8C3EA9CAE
:10067000FAEB9DFBEA28F541EB39F542500675414E
:10068000FF7542FFC3E54294025002D21EE542C408
:10069000FA540FFBEA54F0FAE541C4540F4AFAC386
:1006A000EA9402FAEB9400FB40057048EA70457A40
:1006B000017B00803FAA41AB42EBC4FCEAC4540F6B
:1006C0004CFCC3EA9CFAEB9400FBE80303543F2A7A
:1006D000FAEB3400FB8A418B42C394024002C21EF3
:1006E000EBC4FE7B00EAC4540F4EC39402FA4002EE
:1006F00070027A01202806301808120ABF3018024A
:1007000080FB854892854993D21843E6807892E62B
:10071000FFC3E49AF8E49BF9C3E833F8E933F9201E
:100720001E7F3010047F038015C3E5389482400E8D
:100730000F941E40010FC3EF940640027F05E8FAB4
:10074000E9FBD3E913FDE813FC8C468D4788488903
:1007500049C3EF9403602BEF20E00CE82CF8E93D4F
:10076000F9ECFAEDFB800BE8D338F8E939F97AFFB8
:100770007BFFC3EF9403400A8A4A8B4B8844894528
:100780008050884A894B8A448B45301045754AF021
:10079000754BFF7546F07547FF7548F07549FF804A
:1007A00031E8FAD313FC8C468848C3EF9403601EEB
:1007B000EF20E007E82CF8ECFA8007E8282401F89D
:1007C0007AFFC3EF940340068A4A88448004884A2B
:1007D0008A44202806301808120ABF30180280FB0D
:1007E000753502D21843E68030112DA841A942C3C5
:1007F000E913F9E813F8301004E92440F9C2AF53C3
:10080000E67F759100C3E498F594E499F5957591A8
:1008100004D21843E680D2AF2275F000301D0E7569
:10082000F040800975F040301D0375F000D2197555
:1008300043007A027B02201E1D301102C2193010C3
:10084000067A367B36800F7B28E542700104FAC3B6
:10085000942840027A28201811E543600D301003D7
:10086000D53504D21A80671207E30543E59B54404F
:10087000B5F00DE53460BB2019B8DADAC21A804E43
:1008800020100B2019110AC3EA9B40CA80A40AC396
:10089000EA9B40011A80BFC21953E67F7591003070
:1008A0001E117594007595F0759104D21843E68079
:1008B000020832E5427EFFC3334009C3334005C31B
:1008C000334001FEC3E49E759400F59580DAC2AF13
:1008D00053E67F854492854593759100854A9485BA
:1008E0004B95759104D21843E680D2AF2010133097
:1008F0001A1220110F201D0C2019091581158102D3
:100900001206053422E53875F007A430190105F008
:10091000A2F013A2F113A2F213F538C39478500396
:10092000753878C3E53895394009C292C291C290B2
:1009300075D5FF20280530180751BF30180280FBFD
:10094000854692854793D21843E6802220120FC233
:10095000AFC294D29575D5F6D2AF759F2022C2AFA3
:10096000C294D29375D5DBD2AF759F202220120F8F
:10097000C2AFC29075D5EDD295D2AF759F3022C26D
:10098000AFC29275D5EDD293D2AF759F10222012CF
:100990000FC2AFC295D29375D5EDD2AF759F10221D
:1009A000C2AFC293D29575D5EDD2AF759F302220DC
:1009B000120FC2AFC29175D5DBD293D2AF759F2013
:1009C00022C2AFC29175D5F6D295D2AF759F2022C3
:1009D00020120FC2AFC293D29475D5DBD2AF759FF0
:1009E0003022C2AFC295D29475D5F6D2AF759F10A2
:1009F0002220120FC2AFC29275D5F6D294D2AF7533
:100A00009F1022C2AFC29075D5DBD294D2AF759F32
:100A100030227432A28540032085F750033085F2DE
:100A2000D5E0F3922722E55B700122F8C3940650CB
:100A30000FC2AF12049A12043512038FD2AF80781E
:100A4000C3E55C94064077B80704C221806AB80801
:100A500004D2218063B80904C222805CB80A04D29F
:100A6000228055B80D0A75640075650ED224804841
:100A7000B80E0A7564FF75650EC224803BB8140A6F
:100A80007988E714A2E09221802EB8150B7988E7C7
:100A900014A2E0B392218020B80C1DE4A22192E0C0
:100AA000A22292E1047988F77554A57555F1B12811
:100AB000755400755500D2AF755B00755C0022C09F
:100AC000D075D010BE002DE5657022C2AF854126DD
:100AD000854227D2AFE526A23813F9A2391329F5AA
:100AE00026E52703C2E7F903C2E739F5270E2018E8
:100AF00003D0D022BE0124E5657010E527705DE5C6
:100B000026701175270F7526FF8009856426856577
:100B1000277565000E201803D0D022BE0215E526E9
:100B2000C465266527F478D0A65D71D90E20180318
:100B3000D0D022BE030BE52671D90E201803D0D0E9
:100B400022BE040CE526C471D90E201803D0D02291
:100B5000E52771D9087E00D0D0D2282220E71620C0
:100B6000E61D20E52720E43420E34120E25020E187
:100B70005CE5266114A23733F52675270F6114A2B0
:100B80003733A23633F52675270D6114A23733A209
:100B90003633A23533F52675270B6114E52654F05C
:100BA000C23C4527C4F5267527096114E526A238FD
:100BB00013A23913A23A13F5267527076114E52607
:100BC000A23813A23913F5267527056114E526A26C
:100BD0003813F5267527036114540F23900BE07327
:100BE0008100810A811781288132813F8149815D9D
:100BF000816A817E8185819681A081B781C181D5FD
:100C000008A65F08A65D08A65D2208A65D08A65E88
:100C100008A65D08A65D2286F0E55EB5F002E55FF8
:100C2000F608A65F08A65D2208A65D08A65F08A6CE
:100C30005D2208A65E08A65D08A65D08A65D2208DE
:100C4000A65E08A65E08A65D2286F0E55EB5F00207
:100C5000E55FF608A65D08A65E08A65D2208A65D0B
:100C600008A65D08A65E08A65D2286F0E55EB5F0E2
:100C700002E55FF608A65E08A65D08A65D2208A646
:100C80005F08A65E2286F0E55EB5F002E55FF60835
:100C9000A65E08A65E2208A65D08A65E08A65E22DD
:100CA00086F0E55EB5F002E55FF608A65D08A65D94
:100CB00008A65D08A65D2208A65E08A65D08A65ED9
:100CC0002286F0E55EB5F002E55FF608A65D08A6AF
:100CD0005D08A65E2208A65D08A65D08A65D08A6BA
:100CE0005E22901A0D7820B165E520B4550AA3B1B3
:100CF00065E520B4AA0280127554A57555F1B1ECD2
:100D0000B128755400755500801D901A0378807BBA
:100D10000AB165A308DBFA901A0F788C7B1AB165CB
:100D2000A308DBFA901A2922C2AFB1A8B1CAB185D3
:100D3000901A007410B16AA37408B16AA374CCB19C
:100D40006A901A0378807B0AB169A308DBFA901ACB
:100D50000F788C7B1AB169A308DBFAB1BBB1DDB1A6
:100D600099901A2922E493F622E6438F01538FFDCE
:100D7000FFC3E583941C400122EF8554B78555B726
:100D8000F0538FFE22438F02438F018554B7855560
:100D9000B7901A0DF0538FFC22901A0D7455B16A5A
:100DA000901A0E74AAB16A227A3079D07820901AFB
:100DB00040B165E520F709A3DAF7227A3079D090BF
:100DC0001A40E7B16A09A3DAF9227A8C790078200F
:100DD000901A70B165E520F309A3DAF7227A8C79CD
:100DE00000901A70E3B16A09A3DAF922788076FFDD
:100DF0000876330876010876010876190876FF0828
:100E000076090876180876040876FF08080876FF41
:100E10000876FF0876FF0876FF0876FF0876FF0859
:100E200076030876FF0876FF0876FF0876FF0876D7
:100E3000FF0876980876500876050876FF08760150
:100E40000876FF0876FF0876FF0876070876FF0821
:100E500076FF0876FF087600087600227888E61488
:100E6000A2E19222A2E092217884745096500276F8
:100E7000507886740D965002760D863A789CE67509
:100E800039FFB402037539A0B40303753982755173
:100E90000078A0E6F8600674282409D8FCF551789B
:100EA000988653788DE62323F95403F550E954FCD2
:100EB000F54FB6FF03754FFF7883E624FF9229783C
:100EC000C07600087655227554007555007597DE7A
:100ED0007597AD7581B043FF8075EF0675A9001257
:100EE000049A7580FF75F1F075A4007580FF75D4C4
:100EF000FF75900075F23F75A53F75900075D5FFA1
:100F000075A60175A72075F30175CC0175A700754D
:100F1000E34075E20212049AE4F8F6D8FDB1EC91D0
:100F2000E2D15CC2AF12038912045C120482120384
:100F300089C2AF75540075550012049A75A91375CE
:100F4000A71075C10075A700780979007A0030856F
:100F50000CDAFBD9F9D8F7120429021C00302A0E4A
:100F6000120422120395120395120395C22A758862
:100F700051758E017589AA758C00758D0075C80430
:100F800075910475D84075D90875F782759E0775F7
:100F9000960275DA4275DB42759B80759D0075D1AE
:100FA0000C75BCB975BB1075E88075B2011203777A
:100FB000511275E4D530270375E45DC228C224754B
:100FC000A82D75E68075B803D2AF758E0C75578065
:100FD000755610755A50755DF7755EE7755FD67575
:100FE00063E17560EB7561CA7562A975300A120319
:100FF00089E530602B7557C0755608755A28755DA0
:10100000FF755EF7755FEF7563E17560FB7561EB0A
:101010007562DA75300A120389E5306003020F3118
:10102000C0D075D010AF8ED0D0D22A753700C2AFE5
:101030001203CBD2AFC3E532940A40F9C2AF120318
:10104000D1D2AFE4F541F542F55BF55CF533F53B04
:10105000C3E53B945E4033753B000533789AE678F0
:1010600014146012782814600D786414600878C82D
:10107000146003753300C3E53398400E15337804CC
:10108000C2AF12049A120435D2AF202806120ABF4A
:101090001204F130250CE5317003020F31120A26DB
:1010A00080AE1203892025A8C2AF12049AD2AFE401
:1010B000F522F523F538120377756500C2AF798400
:1010C000874E854E4C854E4D854E5275A71075C185
:1010D0003075A70075A903C3E55733F557C3E55A23
:1010E00033F55AC3E55633F556E55DC560F55DE564
:1010F0005EC561F55EE55FC562F55F75633CD2AFC5
:10110000A2219212302204A2269212D210D211757C
:10111000340075360C1209D01209F112059412052B
:101120009B12059412059B120594120824120905BE
:1011300012094C12059B1208191204AA1209051271
:10114000096D12059B12082412090512098E120559
:101150009B1208191209051209AF12059B120824E7
:101160001209051209D012059B120819120905125D
:1011700009F112059B1204F130113530101A854E19
:101180004CC3E5349418500530259F807EC21075FD
:101190004CFF754DFF7552FF201D15E53614600A92
:1011A000F5363025852022828061C211D21C212A89
:1011B000753700D21B30251320220C79A4E7600775
:1011C000C3E53294035044E5316040202209C3E571
:1011D0004294F05036212A201D12201205202605A7
:1011E00080EC2026E9D21D854E4C2151854E4CC302
:1011F000E5429420400EC21DA2269212D2117536ED
:1012000012854E4C212A201B020537C2AFC2241280
:10121000049A75220075230075A91375A71075C16E
:101220000075A700D3E55713F557C3E55A13F55AD0
:10123000C3E55613F556E55DC560F55DE55EC56130
:10124000F55EE55FC562F55F7563E1D2AF202517F6
:10125000C3E537940450061203890210A8C2AF12E6
:10126000042ED2AF02102075370078A4E66006D2B3
:0812700095D294D293021043C1
:1019FD00020EC71008CCFF33010119FF091804FFAF
:101A0D0055AAFFFFFFFFFFFF03FFFFFFFFFF9850EA
:0D1A1D0005FF01FFFFFF07FFFFFF0000FFB7
:101A400023525F485F313523202020202020202092
:101A500023424C48454C492445464D3842323123B7
:101A6000426C75656A61792020202020202020208A
:101A7000023A042034420D00452D0D0034420D0081
:0B1A80004E27D300452DD0193419006B
:101C0000C2AFC2D37597DE7597AD7581C075A90057
:101C100043FF80752438752503B1DB7529A5752A26
:101C2000F143F12053A4DFD28575D4FF75E3407DE5
:101C3000FA780379E67C10752200752300901DE880
:101C40007B0675249875250130850281482085081A
:101C5000D8FBD9F9DCF781BA308508D8FBD9F9DC93
:101C6000F781BAB19BE493A3C39A6004DDC381BA40
:101C7000DBDBB18D600281317B08E493FAA3B16EA6
:101C8000DBF87A30B16E752200752300B18DEAFC65
:101C9000EBFDC3ED94FE400EB18D8A278B28ED300D
:101CA000E0048A828B83B18D7AC270D8C3ED94FE32
:101CB000601950CEBD0029EC600F7520007521FF22
:101CC000752900752A000200008100A827A92808AC
:101CD00009D804D90281DDB191EAF281D10D81A642
:101CE000C3ED94035051EDA2E092007AC5C3E582A2
:101CF0009400E583941C508C200010438F02438F86
:101D0000018529B7852AB7F0300027A827A9280818
:101D100009438F01538FFDD804D902A132C3E58353
:101D2000941C4003A3A117E28529B7852AB7F0A325
:101D3000A117538FFC81827AC1BD030CE493A3FAEF
:101D4000B152DCF8B14A81828184AA22AB23B16E00
:101D5000EBFAEA6222752608C3E52313F523E52290
:101D600013F52250066323A0632201D526EAB1DBD6
:101D7000B1DB75260AEAF4200102D285300102C2E5
:101D800085B1DBC3134002C201D526EB22B191EA33
:101D9000FB208502A191308502A196752608AE240C
:101DA000AF25C3EF13FFEE13FEB1DFB1DBC3EA13C0
:101DB0003085024480FA30E703632201C3E5231330
:101DC000F523E52213F52250066323A0632201D5F3
:101DD00026D9E52265236523F52222AE24AF250E00
:101DE0000FDEFEDFFCD20122424C48656C693437BD
:061DF0003164E8B20601B7
:00000001FF
